:020000040800F2
:10000000E8060020F1010008F32300081121000890
:10001000F1230008FD020008512E00080000000036
:10002000000000000000000000000000FD230008A8
:10003000FF02000800000000F9230008FF23000869
:100040000B020008F52300080B0200080B02000851
:1000500061030008FB2300080B0200080B020008E4
:100060000B0200080B0200080B0200080B0200083C
:100070000B0200080B0200080B0200080B0200082C
:100080000B020008000000000B0200080B02000831
:100090000B0200080B0200080B0200080B0200080C
:1000A0000B0200080B0200080B0200080B020008FC
:1000B0000B0200080B0200080B0200080B020008EC
:1000C0000B0200080B0200080B0200080B020008DC
:1000D0000B020008392E00080B020008452E00080C
:1000E0000B0200080B0200080B0200087D24000828
:1000F000A1240008952400088924000800000000BD
:10010000000000000B020008000000000B020008C5
:1001100005290008000000000B0200080B0200087F
:100120000B0200080B0200080B0200080B0200087B
:100130000B02000800000000000000000B02000895
:100140000B0200080B020008000000000000000085
:10015000000000000000000000000000000000009F
:100160000000000000000000000000000B0200087A
:100170000B0200080000000000000000000000006A
:10018000000000008D0300080000000000000000D7
:10019000000000000000000000000000000000005F
:1001A00000000000000000000B02000815210008FC
:1001B0000B0200080B0200080B0200080000000000
:1001C000000000000B02000800000000000000001A
:1001D0000B0200080B020008DFF810D000F07CF8DA
:1001E0000048004789340008AFF30080E80600208B
:1001F0000648804706480047FEE7FEE7FEE7FEE7C1
:10020000FEE7FEE7FEE7FEE7FEE7FEE76D240008F7
:10021000D90100082DE9F05F0546002092469B4673
:1002200088460646814640241BE02846414647460C
:10023000224600F041F853465A46C01A914110D365
:1002400011461846224600F028F82D1A67EB0108DF
:100250004F4622460120002100F01FF817EB00094D
:100260004E41201EA4F10104DFDC484631462A46F7
:100270004346BDE8F09FD2B201E000F8012B491ED1
:10028000FBD270470022F6E710B513460A46044633
:100290001946FFF7F0FF204610BD202A04DB203A64
:1002A00000FA02F1002070479140C2F1200320FAC9
:1002B00003F3194390407047202A04DB203A21FAC7
:1002C00002F00021704721FA02F3D040C2F120026F
:1002D0009140084319467047064C074D06E0E06818
:1002E00040F0010394E8070098471034AC42F6D37D
:1002F000FFF776FFFC3600081C370008FEE7704762
:1003000072B6FEE7144A117F1448012901D003296F
:100310000FD1036823F400730360036843F40063A0
:100320000360036823F400630360036843F400730D
:100330000360022901D003290BD1016841F48051E7
:100340000160016821F480510160016841F480611D
:1003500001600020107770470C0000200020024050
:1003600000F088B808494A69C0B222F4FC7242EA37
:10037000C0004861486940F002004861486940F4A3
:10038000803048617047000000200240704710B57F
:1003900090F8253000210122022B03D00421C163F3
:1003A000012122E003681C6824F00E041C60836CA9
:1003B0001C6824F480741C6003681C6824F0010429
:1003C0001C6090F84430046C03F01F0302FA03F33E
:1003D0006360D0E913345C60436D33B11C6824F46E
:1003E00080741C60D0E916345C6080F825200022FF
:1003F00080F82420084610BD70B590F82520002410
:1004000001212346022A07D00422C26380F8251066
:1004100080F82430012429E00268156825F00E05D3
:1004200015600268156825F001051560826C156875
:1004300025F48075156090F84420056C02F01F02C9
:1004400001FA02F26A60D0E913255560426D32B1BB
:10045000156825F480751560D0E91625556080F87B
:10046000251080F82430816B01B18847204670BD8B
:100470007047000070B5364D68696FF30800686119
:10048000344C207A042803D1686920F48020686104
:1004900028694CF2FA3108404FF000061DD061681F
:1004A00001436160810F01D0A969A961810000D079
:1004B0002861FFF727FF207A012806D0022806D0FE
:1004C000032806D0042804D006E0606902E0206911
:1004D00000E0E06800F040F826722869C0072ED0DE
:1004E00001202861207A012809D0FFF70BFF207A2C
:1004F00002281ED003281ED004281CD01EE0A069AC
:10050000401EA061A06950B16069FFF7B1FF60694A
:10051000401C606160692169FFF724FF0FE04FF024
:10052000FF3060612672FFF7EDFE6069FFF7A0FF04
:1005300005E0206900E0E068FFF79AFF2672207A64
:10054000002804D1686920F040706861267070BD91
:10055000002002400C000020704700002DE9F04F01
:10056000DFF82092002301260324A9F1040B85B0B3
:100570000F2709F1040AABF1040EFAE006FA03F5BD
:100580002A407CD091F804C00CF0030CBCF1010FA0
:1005900002D0BCF1020F26D1D0F808C0CDF800C0BF
:1005A0004FEA430C04FA0CF8CDF810C0DDF800C097
:1005B0002CEA080CCDF800C0D1F80C80DDF810C092
:1005C00008FA0CF8DDF800C048EA0C08C0F808800A
:1005D000D0F804C02CEA050C0D79C5F300159D4038
:1005E00045EA0C0545600D79ED43AD070ED0C568B1
:1005F0004FEA430804FA08FC25EA0C05D1F808C0C4
:100600000CFA08FC4CEA050CC0F80CC00D7905F09A
:100610000305022D16D1DD0800EB850CCDF808C0CE
:10062000DCF820805D074FEAD56C07FA0CF528EA64
:1006300005080D6905FA0CF5DDF808C045EA08055E
:10064000CCF8205005684FEA430CCDF808C004FAF6
:100650000CFC25EA0C0591F804C00CF00308DDF849
:1006600008C008FA0CF848EA0508C0F800804D6890
:1006700015F4403F7CD0444DD5F860C000E077E0F1
:100680004CF0010CC5F860C02D6E23F0030C05F092
:10069000010500953D4D65440295AD684FEA837CA8
:1006A0004FEA1C7807FA08FC25EA0C05B0F1904FD8
:1006B00006D0DFF8DCC0604505D14FF0010C20E02A
:1006C0004FF0000C1DE0DFF8CCC0604502D14FF0C8
:1006D000020C16E0DFF8C0C0604502D14FF0030CF9
:1006E0000FE0DFF8B8C0604502D14FF0040C08E01D
:1006F000DFF8ACC0604502D14FF0050C01E04FF0CF
:10070000060C0CFA08FC4CEA050C029DC5F808C062
:10071000D9F80050CC46D1F8048095435FEAC82848
:1007200000D51543CCF80050DAF80050D446D1F883
:10073000048095435FEA882800D51543CCF8005023
:10074000DBF80050DC46D1F8048095435FEA883836
:1007500000D51543CCF80050DEF80050F446D1F82F
:10076000048095435FEAC83800D51543CCF80050A3
:100770005B1C0A6832FA03F57FF400AF05B0BDE8F0
:10078000F08F00000804014000100240000001400A
:100790000004004800080048000C00480010004811
:1007A00000140048014880687047000000000020E5
:1007B000024881684268114481607047000000204F
:1007C00010B50024032000F093F80F2000F008F883
:1007D00008B1012401E000F025F8204610BD00001A
:1007E00070B50E4E05460024706898B14FF47A71CA
:1007F000B1FBF0F00A490968B1FBF0F000F0F6FD3A
:1008000040B9102D06D200222946501E00F050F8A3
:10081000356000E00124204670BD0000000000208B
:100820002C0000201A4808B5016E41F00101016654
:10083000016E01F001010091816D41F080518165EF
:10084000806D002200F0805000901146012000F0E1
:100850002FF8012000F01EF800221146042000F0BD
:1008600027F8042000F016F800221146052000F0B9
:100870001FF8052000F00EF800221146512000F06C
:1008800017F8512000F006F8BDE8084000F0A0B8C5
:1008900000100240002809DB00F01F0201219140F6
:1008A0004009800000F1E020C0F80011704700000E
:1008B000F0B40E4B1B680C46C3F30223C3F10705CB
:1008C000042D00D90425191D072901D2002300E0B9
:1008D000DB1E012606FA05F1491E214099409E4083
:1008E000761E16403143F0BC02F0C4BA0CED00E0B5
:1008F000064900F0070208684FF6FF03184040EA77
:100900000220034A10430860704700000CED00E02D
:100910000000FA052B492C4B0A6832214A432B4927
:1009200040B1B0F5007F086829D020F4C06040F4E1
:1009300080602CE00868C0F34120022804D051F800
:10094000800F20F4807022E0D1F8800020F48070C5
:10095000C1F88000086820F4C06040F400700860AE
:10096000B2FBF3F0401C00E0401E4A69520501D57D
:100970000028F9D1486940050AD503207047C0F323
:100980004120022806D051F8800F40F480700860A2
:1009900000207047D1F8800040F48070C1F88000DA
:1009A000086820F4C06040F400700860B2FBF3F007
:1009B000401C00E0401E4A695205DBD50028F9D1F1
:1009C000D8E700002C00002040420F0000700040DB
:1009D0000248816841F480418160704700700040A6
:1009E00010B5144C2068C00304D500F029F84FF46A
:1009F000803020600F4C20342068000703D500F0C1
:100A00001BF8082020602068C00603D500F015F808
:100A1000102020602068800603D500F00FF8202009
:100A200020602068400603D500F009F840202060CF
:100A300010BD0000140401407047704770477047B4
:100A4000704700002DE9F8430446006800269D4DDC
:100A500000035ED5A86D0027C00008D4A86D40F043
:100A60008050A865A86D012700F080500090DFF845
:100A70005892D9F8001041F48071C9F80010FFF7BE
:100A800091FE804606E000BFFFF78CFEA0EB080059
:100A900002282BD8D9F80000C005F5D5D5F890006C
:100AA00010F4407014D0216C814211D0D5F8900020
:100AB000D5F8901020F4407041F48031C5F89010C2
:100AC000D5F8901021F48031C5F89010C5F8900049
:100AD000C00711D0FFF766FE804641F2883907E073
:100AE000FFF760FEA0EB0801494501D903260BE0A2
:100AF000D5F890008007F3D5D5F89000216C20F44C
:100B000040700843C5F890001FB1A86D20F08050D8
:100B1000A8652078C00707D0D5F88800616820F064
:100B200003000843C5F888002078800707D5D5F86A
:100B30008800A16820F00C000843C5F888002078E0
:100B4000400707D5D5F88800E16820F03000084359
:100B5000C5F888002078000707D5D5F888002169F6
:100B600020F0C0000843C5F888002078800607D52B
:100B7000D5F88800616920F440600843C5F8880012
:100B80002078400607D5D5F88800A16920F44050A8
:100B90000843C5F888002078000607D5D5F88800F6
:100BA000E16920F440400843C5F888002088C0056A
:100BB00007D5D5F88800216A20F440300843C5F8ED
:100BC00088002088800507D5D5F88800616A20F460
:100BD00040200843C5F88800208840050FD5D5F887
:100BE0008800A16A20F440100843C5F88800A06A74
:100BF000B0F5801F03D1E86840F48010E8602088D9
:100C000000050FD5D5F88800E16A20F440000843BC
:100C1000C5F88800E06AB0F5800F03D1E86840F4B9
:100C20008010E8602088C0040FD5D5F88800216BBB
:100C300020F040700843C5F88800206BB0F1807F39
:100C400003D1E86840F48010E86020884FF000612C
:100C500080040ED5D5F88800626B20F04060104308
:100C6000C5F88800606B884203D1E86840F48010C2
:100C7000E860208840040ED5D5F88800A26B20F0EB
:100C800040601043C5F88800A06B884203D1E86833
:100C900040F48010E860208800040FD5D5F8880063
:100CA000E16B20F040500843C5F88800E06BB0F1DC
:100CB000805F03D1E86840F48030E8603046BDE8EA
:100CC000F883000000100240007000402DE9F0475A
:100CD0000E4605004FF0000725D0DFF8AC81D8F8AC
:100CE000000000F00F00B0420CD2D8F8001021F044
:100CF0000F013143C8F80010D8F8000000F00F00D1
:100D0000B04210D12968614CC80741F2883A5AD0E4
:100D10006868DFF87C91032808D0022820682DD06D
:100D2000400500282CDB0120BDE8F0872068800109
:100D3000F9D5E06800F00302E068C0F30310401C3E
:100D4000032A19D0534A00BFB2FBF0F0E268C2F3A5
:100D500006225043E268C2F34162521C5200B0FBCB
:100D6000F2F0484517D9A06810F0F00F0CD08807B2
:100D700011D5A86840B10EE0474AE5E78003D0E707
:100D800000F0B6F8484506D9A06820F0F00040F021
:100D90008000A0608027A068696820F003000843F5
:100DA000A060FFF7FFFC814606E000BFFFF7FAFCFA
:100DB000A0EB090151453AD8A068696800F00C0021
:100DC000B0EB810FF2D12868810714D5400703D515
:100DD000A06840F4E060A0602878000705D5A0680E
:100DE00020F4605040F4E060A060A068A96820F0A2
:100DF000F000084304E0802F03D1A06820F0F00049
:100E0000A060D8F80010404601F00F01B14216D999
:100E1000016821F00F0131430160FFF7C3FC074671
:100E200007E000BFFFF7BEFCC11B514501D90320FD
:100E30007AE7D8F8000000F00F00B042F2D128782D
:100E4000400705D5A068E96820F4E0600843A06089
:100E50002878000706D5A068296920F4605040EA88
:100E6000C100A06000F044F8A1680C4AC1F303116E
:100E7000515C01F01F01C840094908600948006839
:100E8000BDE8F047FFF7ACBC002002400010024074
:100E900000B4C4040024F40000127A00B83500083D
:100EA0002C000020000000200548064900688968E1
:100EB000054AC1F30221515C01F01F01C84070478F
:100EC0002C00002000100240C835000805480649E3
:100ED00000688968054AC1F3C221515C01F01F0115
:100EE000C84070472C00002000100240C8350008A0
:100EF000184910B58868C0F381021748012A0BD041
:100F00008A684310C2F38102022A06D08A68C2F3BB
:100F10008102032A03D0002010BD184610BDCA6804
:100F200002F00304CA68C2F30312521C032C02D05D
:100F3000B0FBF2F001E0B3FBF2F0CA68C968C2F39B
:100F400006225043C1F34161491C4900B0FBF1F056
:100F500010BD0000001002400024F4002DE9F84309
:100F600004007AD02078F84DC00747D0A868E96817
:100F700000F00C0001F003010C2802D0082817D063
:100F800001E0032914D06068B0F5803F17D0B0F5B8
:100F9000A02F286817D020F480302860286820F41B
:100FA000802028606068E0B1FFF7FCFB064614E093
:100FB0002868800322D560680028D2D01EE0286807
:100FC00040F48030EDE740F480202860F7E700BF70
:100FD000FFF7E8FB801B642870D828688003F7D5EA
:100FE0000CE0FFF7DFFB064605E000BFFFF7DAFB8A
:100FF000801B6428F0D828688003F7D42078800705
:101000004CD5A868E96800F00C0001F003010C2839
:1010100002D004280DD001E002290AD0E06800289F
:1010200028682BD040F480702860FFF7BBFB064691
:1010300019E02868400502D5E068002891D068686A
:10104000217C20F0FE4040EA01606860BF480068F3
:10105000FFF7C6FB002800D120E072E1FFF7A2FBFA
:10106000801B0228B8D828684005F7D56868217C1D
:1010700020F0FE4040EA016068600FE020F48070DC
:101080002860FFF78FFB064605E000BFFFF78AFBED
:10109000801B0228A0D828684005F7D420780007D4
:1010A00029D560690028D5F8940013D040F00100DC
:1010B000C5F89400FFF776FB064606E090E000BF17
:1010C000FFF770FB801B022886D8D5F894008007B4
:1010D000F6D510E020F00100C5F89400FFF762FBA0
:1010E000064604E0FFF75EFB801B022878D8D5F89F
:1010F00094008007F6D42078400761D5A86D0026BB
:10110000C00008D4A86D40F08050A865A86D0126E5
:1011100000F0805000908E480168C90511D4016824
:10112000804641F480710160FFF73CFB074604E014
:10113000FFF738FBC01B022852D8D8F80000C005C2
:10114000F6D5A068012815D00528D5F8900016D04E
:1011500020F00100C5F89000D5F8900020F00400C0
:10116000C5F89000A06841F28838B8B1FFF71AFBC3
:1011700007460EE0D5F8900040F00100F0E740F09F
:101180000400C5F89000F5E7FFF70CFBC11B4145D3
:1011900026D8D5F890008007F6D50CE0FFF702FBC3
:1011A000074604E0FFF7FEFAC11B414518D8D5F801
:1011B00090008007F6D41EB1A86D20F08050A8657D
:1011C0002078800629D5A0690028D5F8980013D08A
:1011D00040F00100C5F89800FFF7E4FA064606E083
:1011E00075E000BFFFF7DEFA801B02286FD8D5F844
:1011F00098008007F6D510E020F00100C5F89800AF
:10120000FFF7D0FA064604E0FFF7CCFA801B02286D
:101210005DD8D5F898008007F6D4E069F0B3A968E6
:10122000C1F3810103295DD00228286820F0807075
:10123000286003D0FFF7B6FA04464BE0FFF7B2FA96
:10124000064604E0FFF7AEFA801B02283FD8286864
:101250008001F7D4F4E908016FF00F0202EB0111ED
:101260000843218A5204490802EB4151A26841EA2D
:1012700002210843217D4FF07E42490802EB416183
:101280000843217B40EAC160E968324A11400843C3
:10129000E860286840F08070286000E05EE0E86860
:1012A00040F08070E860FFF77DFA044605E000BF7B
:1012B000FFF778FA001B022809D828688001F7D5C3
:1012C0004CE000BFFFF76EFA001B022802D9032092
:1012D000BDE8F88328688001F4D4E8681E49084016
:1012E000E8603BE00128F3D0E868226A00F00301DF
:1012F000914226D1616A00F0F00209011039914251
:101300001FD1A26A00F4FE41B1EB022F19D194F86B
:101310002C2000F07841B1EBC26F12D1218E00F485
:10132000C00249084905A1F50011914209D194F87C
:10133000341000F0C06049084906A1F100718142F3
:101340000CD00120C4E70000001002400000002083
:10135000007000400C809F01FCFFEEFE0020B7E70C
:101360002DE9F0411D4616460F46040003D0D4F87F
:10137000880018B108E00120BDE8F081002084F861
:101380008400204600F068FD2420C4F8880020680E
:10139000016821F001010160A06A10B1204601F04E
:1013A000D9FA204601F0C4FB0128E5D02068816805
:1013B00041F4804181602068816821F40041394313
:1013C0008160700540EA054120680268064B1A40BA
:1013D0000A4302602068016841F001010160204673
:1013E000BDE8F04101F01ABBFFFF00FC10B5401E44
:1013F000B0F1807F01D3012010BD4FF0E024606187
:101400000F21601701F036FD0020A0610720206148
:10141000002010BD704770477047000030B590F84D
:101420003C20012A42D0012280F83C20CA688B6807
:1014300022F440721A434B6822F480621A430B680C
:1014400022F400621A430B6922F480521A434B695A
:1014500022F400521A430B6B22F480421A430B8B86
:1014600022F4702242EA0342CB6922F080521A43EE
:101470000F4D03680024AB4202D00E4DAB4210D199
:101480000D8D22F4700242EA05520D6A22F080723C
:101490002A434D6A22F000722A43C96A22F00052A0
:1014A0000A435A6480F83C40002030BD022030BD21
:1014B000002C014000340140704770477047000025
:1014C000F0B590F83C20012A3AD0012580F83C5034
:1014D000022280F83D2003685A689C68194E1A4F12
:1014E000B34201D0BB4204D122F4700C4A6842EAF4
:1014F0000C02DFF858C002EA0C02D1F800C04CEA36
:10150000020CC3F804C00268B2420DD0B2F1804FA1
:101510000AD00F4B9A4207D00E4B9A4204D0BA42DF
:1015200002D00D4B9A4204D1896824F080031943FC
:10153000916080F83D50002180F83C100846F0BDD5
:101540000220F0BD002C0140003401408FFFFFFD60
:10155000000400400008004000400140704710B502
:10156000040003D094F83D0010B107E0012010BD45
:10157000002084F83C00204600F022F8022084F885
:101580003D00211D206800F091FF012084F84800F3
:1015900084F83E0084F83F0084F8400084F841005D
:1015A00084F8420084F8430084F8440084F845003D
:1015B00084F8460084F8470084F83D00002010BD00
:1015C00008B50068174988422AD11748016E41F4CE
:1015D00000510166006E002200F400500090114698
:1015E0002B20FFF765F92B20FFF754F90022114655
:1015F0002C20FFF75DF92C20FFF74CF90022114653
:101600002D20FFF755F92D20FFF744F90022114650
:101610002E20FFF74DF9BDE808402E20FFF73AB91C
:1016200008BD0000003401400010024070B50446BF
:1016300090F83C000025012814D0012684F83C6075
:10164000022084F83D0022689068364B184020F450
:101650007F409060086870282ED010DC10F00F0FCB
:1016600003D021E04FF0020070BD4FEA2012072A9C
:101670001AD2DFE802F0525252524A3840002A4B46
:10168000C21A984249D009DCB0F5805F0DD0B0F5A0
:10169000005F1CD0B0F1101F06D13EE0102A3CD0F4
:1016A000202A3AD0502A38D0012584F83D60002005
:1016B00084F83C00284670BDCB68D1E90121206840
:1016C00000F052FF2068816841F0770109E0CB68A3
:1016D000D1E90121206800F047FF2068816841F4CA
:1016E00080418160E1E7CA684968206801F0E6F856
:1016F0005021206806E0CA684968206801F0EFF8C8
:101700006021206800F03AFFCFE7CA684968206886
:1017100001F0D4F840212068F4E722680146104621
:10172000F0E7000088FFCEFF2000100070472DE991
:10173000F04104460068C66805694FF00007A90734
:1017400013D5B10711D5F91E01610120207720685A
:1017500080698007204602D0FFF7E8FF04E000F030
:1017600018F9204600F048F92777680716D5700762
:1017700014D521686FF004000861022020772068EA
:10178000806910F4407F204602D0FFF7CFFF04E0CD
:1017900000F0FFF8204600F02FF92777280715D52D
:1017A000300713D521686FF0080008610420207706
:1017B0002068C0698007204602D0FFF7B7FF04E029
:1017C00000F0E7F8204600F017F92777E80616D56D
:1017D000F00614D521686FF010000861082020770A
:1017E0002068C06910F4407F204602D0FFF79EFFBA
:1017F00004E000F0CEF8204600F0FEF82777E80776
:1018000008D0F00706D021686FF00100086120467B
:1018100000F0F3F8280601D4A80408D5300606D550
:1018200021686FF4025008612046FFF7F4FDE805D7
:1018300008D5300606D521686FF48070086120460F
:10184000FFF7E8FD680608D5700606D521686FF039
:1018500040000861204600F0D1F8A80608D5B0067F
:1018600006D521686FF0200008612046FFF7D4FDFF
:10187000E80208D5F00206D521686FF480100861EF
:101880002046FFF71AFEA80208D5B00206D5216847
:101890006FF4001008612046FFF70EFE680208D5BD
:1018A000700206D521686FF4800008612046FFF7BA
:1018B00005FE28020AD5300208D521686FF4000021
:1018C00008612046BDE8F041FFF748BEBDE8F08161
:1018D00010B586B0044614216846FEF7D3FC0E49C5
:1018E0002068884216D10D48C16C41F00201C164E4
:1018F000C06C694600F0020005904FF480700090C3
:10190000022001900020029003900A2004900448D5
:10191000FEF724FE06B010BD003401400010024066
:101920000004004870B5044690F83C0000250128EA
:101930000BD0012084F83C000C2A1ED007DC82B1B9
:10194000042A12D0082A06D113E0022070BD102A02
:1019500017D0142A19D00125002084F83C0028460D
:1019600070BD206800F014FEF6E7206800F05EFE0F
:10197000F2E7206800F0A2FEEEE7206800F0E6FE45
:10198000EAE7206800F02AFFE6E7206800F05EFF43
:10199000E2E7704710B5040003D094F83D0010B1A1
:1019A00007E0012010BD002084F83C00204600F034
:1019B00022F8022084F83D00211D206800F076FD09
:1019C000012084F8480084F83E0084F83F0084F841
:1019D000400084F8410084F8420084F8430084F811
:1019E000440084F8450084F8460084F8470084F8F1
:1019F0003D00002010BD704770477047704790F859
:101A00008410012918D0012180F884102421C0F805
:101A1000881001680A680B6823F001030B6022F04C
:101A2000005100224266036819602021C0F8881026
:101A300080F8842010467047022070477047704736
:101A400070B5044690F8840001281DD0012084F868
:101A500084002420C4F8880020680568026822F009
:101A6000010202602068826822F060620A4382609C
:101A7000204600F04DFF206805602020C4F8880053
:101A8000002084F8840070BD022070BD70B504464B
:101A900090F8840001281DD0012084F884002420BF
:101AA000C4F8880020680568026822F0010202601C
:101AB0002068826822F060420A438260204600F07B
:101AC00027FF206805602020C4F88800002084F8E3
:101AD000840070BD022070BD7047704770470000E1
:101AE0002DE9F04103680446D86919689A6840F600
:101AF0000F0528424FF000054FF002060AD1870675
:101B00007ED501F0200702F0805C57EA0C0777D001
:101B1000616F3AE1B24FDFF8CCC2174001EA0C0C1A
:101B200057EA0C0C6CD05FEAC07C0CD05FEAC15C59
:101B300009D54FF0010CC3F820C0D4F8903043F021
:101B40000103C4F89030830709D5D30707D0236871
:101B50001E62D4F8903043F00403C4F89030430779
:101B60000AD5D30708D0266804233362D4F890300E
:101B700043F00203C4F8903003070CD501F02003B2
:101B80003B4308D0266808233362D4F8903043F0F2
:101B90000803C4F8903003050BD54B0109D526681E
:101BA0004FF400633362D4F8903043F02003C4F85C
:101BB0009030D4F89030002B3DD0800609D501F04C
:101BC000200002F08051084303D0616F09B1204624
:101BD0008847D4F8900021688968490602D410F03B
:101BE000280F2AD0204600F079FF20688068400640
:101BF0001ED52068083050E8001F21F0400100E0A9
:101C000021E040E80012002AF3D1D4F8800078B136
:101C100075498163D4F88000FEF7EEFB00280AD0F6
:101C2000D4F88000816B00E02046BDE8F041084711
:101C30002046FFF753FFBDE8F0812046FFF74EFF37
:101C4000C4F89050F7E7D4F86CC02027BCF1010F1E
:101C50007ED15FEAC06C7BD55FEAC16C78D510207D
:101C6000186220688068400645D5D4F8801008685E
:101C700040680004000CDED0B4F85C208242DAD95F
:101C8000A4F85E000868006880062CD4216851E83A
:101C9000000F20F4807041E80002002AF6D120688D
:101CA000083050E8001F21F0010140E80012002A2E
:101CB000F5D12068083050E8001F21F0400140E8CD
:101CC0000012002AF5D1C4F88C70E566206850E84F
:101CD000001F21F0100140E80012002AF6D1D4F8CC
:101CE0008000FEF754FB2667B4F85C00B4F85E1081
:101CF000401A81B230E0B4F85C00B4F85E10401ACB
:101D000081B2B4F85E00002895D0002993D02268F3
:101D100052E8000F20F4907042E80003002BF6D147
:101D20002F4BDB432068083050E8002F1A4040E872
:101D3000002CBCF1000FF5D1C4F88C70E566656726
:101D4000226852E8000F20F0100042E8000300E093
:101D500006E0002BF4D126672046FFF76FFE6AE706
:101D6000C60209D5560207D54FF4801018622046E6
:101D7000BDE8F041FFF7B1BE03060AD501F08003CC
:101D800002F40002134304D0A16F00297FF44CAF8A
:101D900051E7420611D54A060FD52046026852E89F
:101DA000001F21F0400142E80013002BF6D1C0F8DB
:101DB0008870856700F0ABF93DE7020206D54A005E
:101DC00004D52046BDE8F041FFF786BEC001C6D568
:101DD0000029C4DA2046BDE8F041FFF730BE00001C
:101DE0000100001020010004C92A000810B50400F9
:101DF00003D0D4F8880010B107E0012010BD002006
:101E000084F88400204600F027F82420C4F88800D5
:101E10002068016821F001010160A06A10B120462C
:101E200000F098FD204600F083FE0128E6D02068EF
:101E3000416821F4904141602068816821F02A01C5
:101E400081602068016841F0010101602046BDE821
:101E5000104000F0E3BD00002DE9F04798B00446C3
:101E6000142111A8FEF70EFA44216846FEF70AFA7B
:101E700074492068744C0226DFF8D09100254FF099
:101E8000904A88423AD12020059500906846FEF796
:101E9000D9FD08B1FEF734FAE06D40F00100E065CD
:101EA000E06D00F001001690E06C40F00100E0648D
:101EB000E06C00F001001690E06C40F00200E0647D
:101EC000E06CCDE912650C2400F002001194149529
:101ED000CDE9154011A95046FEF740FBCDE912654A
:101EE000CDE91454119611A94846FEF737FB00229C
:101EF00011465B20FEF7DCFC5B2041E054494FF4C7
:101F00004068884241D10827684600970495FEF74B
:101F100099FD08B1FEF7F4F9A06D40F40020A0652A
:101F2000A06D00F400201690E06C40F00100E06429
:101F3000E06C00F001001690E06C40F00400E064FA
:101F4000E06CCDE9126500F0040016904FF40040FB
:101F5000CDE91457119011A95046FEF7FFFA05205C
:101F6000CDE91450CDE91265CDF8448011A9394866
:101F7000FEF7F4FA002211463420FEF799FC3420D3
:101F8000FEF788FC18B0BDE8F08733490727884280
:101F90002AD10120CDE900056846FEF753FD08B1BE
:101FA000FEF7AEF9206E40F480402066206E00F40B
:101FB00080401690E06C40F00100E064E06CCDE9F8
:101FC000126500F0010016904FF4C060CDE914577F
:101FD000119011A95046FEF7C1FA002211462520A2
:101FE000FEF766FC2520CBE71C498842CAD10420B5
:101FF000009003956846FEF725FD08B1FEF780F9CD
:10200000A06D40F48020A065A06D00F480201690A3
:10201000E06C40F00200E064E06CCDE9126500F095
:102020000200CDF844801495CDE9157011A94846F9
:10203000FEF794FA002211462720FEF739FC2720EC
:102040009EE70000008000400010024000040048AD
:10205000004C0040000800480038014000480040A3
:102060002DE9F8430446D0F88800984616460D46F8
:10207000202802D00220BDE8F883A5B19EB100203F
:10208000C4F890002120C4F888001834FEF78AFBB9
:10209000A6878146E68754F8100C2027183CB0F537
:1020A000805F02D003E00120E5E7206910B12E46F1
:1020B000002510E000260EE08021204600F072FE90
:1020C000C0B9DEB116F8010B21688862B4F8560079
:1020D000401EA4F85600B4F856004B464FF00002DC
:1020E000CDF800800028E7D14FF04001204600F0F5
:1020F00059FE40B1C4F888700320BCE735F8020BE4
:10210000C0F30800E0E7C4F888700020B3E7704728
:10211000FEE700000148FFF7E3BC00004800002094
:10212000114808B5C16C41F02001C164C16C01F0D7
:1021300020010091C16C41F00101C164C16C01F04A
:1021400001010091C16C41F00201C164C16C01F058
:1021500002010091C16C41F00401C164C06C00F047
:102160000400009008BD000000100240184810B59F
:102170001649016017494160002181600C22C1604D
:10218000C0E904128161016241620B460A46816224
:10219000FFF7E6F808B1FEF7B3F800210C48FFF7A7
:1021A00075FC08B1FEF7ACF800210948FFF748FCC0
:1021B00008B1FEF7A5F80648FFF721FC002803D078
:1021C000BDE81040FEF79CB810BD00000080004044
:1021D000480000202433030010B59CB0002419945B
:1021E0001A9417941894149415941C210DA81694FD
:1021F000FEF748F834216846FEF744F82C482B498E
:1022000001609521C0E9011440F2E731C0E90314EF
:1022100044618461FFF7A3F908B1FEF771F84FF448
:102220008050179017A92248FFF700FA08B1FEF76F
:1022300067F81F48FFF7AEFB08B1FEF761F814948A
:10224000159414A91A481694FFF73AF908B1FEF745
:1022500057F84FF4FA70CDE90D400F941094119493
:10226000129404220DA912481394FFF75BFB08B1E6
:10227000FEF746F800944FF40050CDE90440039473
:102280000003CDE9084001940294069407940A944F
:102290000B94694606480C94FFF7C0F808B1FEF7A6
:1022A0002FF80348FFF714FB1CB010BD00340140A9
:1022B00098020020194810B5174901604FF4E13128
:1022C0004160002181600C22C160C0E9041281617B
:1022D000C161016241620B460A468162FFF740F824
:1022E00008B1FEF70DF800210C48FFF7CFFB08B14D
:1022F000FEF706F800210948FFF7A2FB08B1FDF739
:10230000FFFF0648FFF77BFB002803D0BDE8104025
:10231000FDF7F6BF10BD0000004C0040DC000020BF
:10232000184810B5164901604FF4E13141600021B1
:1023300081600C22C160C0E904128161C161016247
:1023400041628162FFF752FD08B1FDF7D9FF00211C
:102350000C48FFF79BFB08B1FDF7D2FF00210948AD
:10236000FFF76EFB08B1FDF7CBFF0648FFF747FB11
:10237000002803D0BDE81040FDF7C2BF10BD00002B
:102380000038014070010020184810B5164901605E
:102390004FF4E1314160002181600C22C160C0E94D
:1023A00004128161C161016241628162FFF71EFD19
:1023B00008B1FDF7A5FF00210C48FFF767FB08B146
:1023C000FDF79EFF00210948FFF73AFB08B1FDF732
:1023D00097FF0648FFF713FB002803D0BDE8104025
:1023E000FDF78EBF10BD0000004800400402002031
:1023F000FEE7FEE7FEF7F4BA704770477047FEF756
:10240000D7B900B593B038216846FDF73BFF1421DA
:102410000EA8FDF737FF4FF40070FEF77BFA02209D
:10242000C1010391402104910421CDE908010090EC
:102430004B21CDE90A1007900C900D906846FEF7ED
:102440008DFD08B172B6FEE70F200E9003200F90AD
:10245000002010901190129004210EA8FEF736FC77
:10246000002801D072B6FEE713B000BD0248016833
:1024700041F470010160704788ED00E00148FFF70A
:1024800056B90000980200200148FFF750B900003B
:10249000980200200148FFF74AB900009802002086
:1024A0000148FFF744B90000980200202DE9F043ED
:1024B0000268264B264D274E274C4FF08049984204
:1024C00007D0484505D0A84203D0B04201D0A04271
:1024D00003D122F070074A683A43204FDFF880C0EA
:1024E000DFF8808098420DD048450BD0A84209D033
:1024F000B04207D0A04205D0B84203D0604501D019
:10250000404503D122F44075CA682A434D6922F040
:1025100080022A4302608A68C2620A688262984224
:1025200007D0A04205D0B84203D0604501D0404555
:1025300001D109690163012141610169C90703D022
:10254000016921F001010161BDE8F083002C014027
:1025500000040040000800400034014000400140F9
:10256000004401400048014010B5846842EA03225B
:1025700024F47F440A432243826010BD8268034BE7
:102580001A400A4342F00701816070478FFFCFFF76
:102590002DE9F043056A026A22F0010202624368F3
:1025A00082691C4C25F0020522400C6822F00302CF
:1025B00014438A68194E2A43174D194FDFF864C037
:1025C000DFF86490A84207D0B04205D0B84203D0EB
:1025D000604501D0484506D122F00808CA6842EAA1
:1025E000080222F00402A84207D0B04205D0B84247
:1025F00003D0604501D0484505D14D6923F44073AF
:102600001D438B692B4343608461496841630262C7
:10261000BDE8F0838FFFFEFF002C01400034014035
:10262000004001400044014000480140F0B5056A07
:10263000026A22F01002026242688369194C1B4E42
:1026400023400C6823F4407343EA042425F020035C
:102650008D6843EA0513144DA84201D0B04206D15B
:10266000CF6823F0800343EA071323F04003A84216
:102670000AD0B04208D00E4DA84205D00D4DA84258
:1026800002D00D4DA84207D14D6922F4406242EAC2
:1026900085028D6942EA85024260846149688163EE
:1026A0000362F0BDFF8FFFFE002C014000340140AB
:1026B000004001400044014000480140F0B5056A77
:1026C000026A22F4807202624368C269194C1B4E8E
:1026D00022400C6822F00302144325F400728D6836
:1026E00042EA0522144DA84201D0B04206D1CF687B
:1026F00022F4006242EA072222F48062A8420AD051
:10270000B04208D00E4DA84205D00E4DA84202D0CE
:102710000D4DA84207D14D6923F4405343EA0513F8
:102720008D6943EA05134360C4614968C16302626D
:10273000F0BD00008FFFFEFF002C0140003401407F
:10274000004001400044014000480140F0B5056AE6
:10275000026A22F4805202624268C369194C1B4E1D
:1027600023400C6823F4407343EA042425F4005307
:102770008D6843EA0533144DA84201D0B04206D11A
:10278000CF6823F4004343EA073323F48043A8428D
:102790000AD0B04208D00E4DA84205D00D4DA84237
:1027A00002D00D4DA84207D14D6922F4404242EAC1
:1027B00085128D6942EA85124260C46149680164EC
:1027C0000362F0BDFF8FFFFE002C0140003401408A
:1027D00000400140004401400048014030B5056A16
:1027E000026A22F4803202624268036D114C234077
:1027F0000C681C4325F400330D8943EA05430E4D54
:10280000A8420BD00D4DA84208D00D4DA84205D0CE
:102810000C4DA84202D00C4DA84204D14D6922F4BF
:10282000803242EA0522426004654968816403629D
:1028300030BD00008FFFFEFF002C0140003401403E
:1028400000400140004401400048014030B5046AA6
:10285000026A22F4801202624268036D114D24F470
:1028600000142B400D6843EA05230D8944EA055402
:102870000D4DA8420BD00D4DA84208D00C4DA842DA
:1028800005D00C4DA84202D00B4DA84204D14D6991
:1028900022F4802242EA8522426003654968C164CD
:1028A000046230BDFF8FFFFE002C01400034014068
:1028B00000400140004401400048014010B5036A57
:1028C000046A24F001040462846924F0F00444EAF8
:1028D000021423F00A020A438461026210BD10B59B
:1028E000036A046A24F010040462846923F0A003DC
:1028F00024F4704444EA023243EA01118261016225
:1029000010BD00000148FFF7EBB80000DC0000201C
:1029100030B5416EB9B1026891689268C1F3426105
:102920000B4B520F9C5CE50003F10804A25CB5FB65
:10293000F2F2A0F86A205A5C615CD200B2FBF1F1BD
:10294000A0F8681030BD0121A0F86A10F8E7000077
:10295000A835000890F82810090706D501684A68CC
:10296000836B22F400421A434A6090F82810C9078A
:1029700006D001684A68C36A22F400321A434A60EA
:1029800090F82810890706D501684A68036B22F47D
:1029900080321A434A6090F82810490706D501682A
:1029A0004A68436B22F480221A434A6090F8281048
:1029B000C90606D501688A68C36B22F480521A439F
:1029C0008A6090F82810890606D501688A68036C29
:1029D00022F400521A438A6090F82810490611D553
:1029E00001684A68436C22F480121A434A60416CC1
:1029F000B1F5801F06D101684A68836C22F4C002D9
:102A00001A434A6090F82810090606D501684A68FA
:102A1000C06C22F4002202434A6070472DE9F8435B
:102A200000260446C0F89060FDF7BCFE8046206892
:102A300000684FF0200500076FF07E4713D543462E
:102A4000002229042046009700F0ACF958B1216813
:102A500051E8000F20F0800041E80002002AF6D182
:102A6000C4F8885021E020680068400722D543461A
:102A700000224FF480012046009700F093F9C8B17E
:102A8000216851E8000F20F4907041E80002002A0C
:102A9000F6D12068083050E8001F21F0010140E81D
:102AA0000012002AF5D1C4F88C5084F88460032009
:102AB000BDE8F883C4F88850C4F88C5044F86C6FB3
:102AC000666026760020F3E710B5806A0021A0F842
:102AD0005E10A0F85610FFF701F810BD10B502689F
:102AE00052E8001F21F4907142E80013002BF6D148
:102AF0000E4B0268083252E8001F194042E80014E9
:102B0000002CF6D1C16E012908D1016851E8002FCF
:102B100022F0100241E80023002BF6D12021C0F85A
:102B20008C100021C166416710BD0000FEFFFFEF61
:102B30002DE9F0410446016880682269E369104389
:102B4000626900251A431043DFF82CC20A688B4BD8
:102B50001A4002430A6020684168E26821F440514B
:102B6000114341602168A069614501D0226A104388
:102B70008A68834B1A4002438A602068C16A626A8D
:102B800021F00F011143C1627E4923687E488B42C8
:102B90000DD1D0F8880010F0030006D0012855D0E0
:102BA000022842D003283FD152E001203DE077497E
:102BB0008B420BD1D0F8880010F00C0035D00428DF
:102BC00033D0082840D00C282ED141E070498B42E8
:102BD0000BD1D0F8880010F0300026D0102835D066
:102BE000202831D030281FD132E06A498B420BD1E6
:102BF000D0F8880010F0C00017D0402826D08028D8
:102C000022D0C02810D123E063450DD1D0F8880030
:102C100010F4406009D0B0F5806F17D0B0F5006FA8
:102C200012D0B0F5406F13D010205B495B4F0026E7
:102C30004FF4004263453BD160B1022813D0042811
:102C40000BD0082872D10DE00220EEE70420ECE75B
:102C50000820EAE7FEF728F901E0FEF749F901004C
:102C600001D17CE01146606A37F810206768B1FB3B
:102C7000F2F007EB4703834270D8B0EB073F6DD803
:102C8000002308461946FDF7C5FA090241EA10611A
:102C900002027808101871413A460023FDF7BAFA8B
:102CA0003F4AA0F54071914258D82168C86056E06B
:102CB000E3694FF6EF7893422CD109284ED2DFE832
:102CC00000F00508114D0D4D4D4D1000FEF7ECF8CC
:102CD00001E0FEF7FBF8010004D140E0FEF708F93F
:102CE000F9E71146606A37F81000B1FBF0F04100D7
:102CF000606801EB5001B1FBF0F0A0F1100141451B
:102D00002CD84FF6F0710140C0F342000143206817
:102D1000C16024E0092821D2DFE800F00509122073
:102D20000E2020201100FEF7BFF802E016E0FEF7AB
:102D3000CDF8010004D112E0FEF7DAF8F9E7114608
:102D4000606A37F81000B1FBF0F1606801EB5001E8
:102D5000B1FBF0F0A0F1100141450AD90125012095
:102D6000A4F86A0024F8680F2846E6602661BDE8EA
:102D7000F08180B299E7000000800040F369FFCF46
:102D8000FFF4FF11003801400010024000440040F1
:102D900000480040004C00400024F400903500083A
:102DA000FFFC0F002DE9F047994617460D460446F3
:102DB0004FF00008089E33E0701C31D0FDF7F2FCA4
:102DC000A0EB0900B04218D8BEB1206801684907DD
:102DD00026D5802D24D0402D22D0C169C9430907B2
:102DE0000DD4082505622046FFF778FEC4F8905000
:102DF00084F884800120BDE8F0870320FBE7C069E8
:102E0000C04300050CD421684FF4006008622046DE
:102E1000FFF764FE2020C4F8900084F88480ECE77B
:102E20002068C06935EA000004D00020B842C3D051
:102E30000020E0E70120F9E70148FEF751BE00005D
:102E4000700100200148FEF74BBE00000402002084
:102E5000FEE700000FB4054B10B503A9044A029821
:102E600000F028F810BC5DF814FB00007134000875
:102E7000440000200907090E002804DB00F1E020CF
:102E800080F80014704700F00F0000F1E02080F897
:102E9000141D704702E008C8121F08C1002AFAD1A9
:102EA00070477047002001E001C1121F002AFBD1CA
:102EB000704700002DE9FF4F8DB00F4605460026F4
:102EC00006E025280BD0DDE90F1290476D1C761C1B
:102ED00028780028F5D111B03046BDE8F08F0024E5
:102EE000A246A1460122E94900E0044315F8013F4A
:102EF000203B02FA03F00842F7D128782A2810D0A4
:102F00006FF02F022878A0F13001092914D80AEBBC
:102F10008A0102EB410144F0020400EB010A6D1C3E
:102F2000F0E701CF5FEA000A03D544F40054CAF188
:102F3000000A44F002046D1C28782E2817D115F8D9
:102F4000010F44F004042A280ED06FF02F022878D5
:102F5000A0F1300109290AD809EB890102EB4101EE
:102F600000EB01096D1CF2E757F8049B6D1C2878F3
:102F70006C280FD006DC4C2817D068280DD06A28A2
:102F800014D104E0742810D07A280FD10DE044F455
:102F900000140AE044F4801401E044F44014697819
:102FA000814202D104F580146D1C6D1C28786E28B6
:102FB0001ED00CDC632830D004DC00288BD05828CD
:102FC00011D19FE0642867D069280CD164E0732890
:102FD0002DD004DC6F2872D0702804D194E07528BD
:102FE0006ED078286DD0DDE90F129047761C4BE14A
:102FF000C4F30250022806D0032809D0042801CFC8
:1030000009D0066040E101CFF117C0E900613BE162
:1030100001CF068038E1067036E117F8040B8DF811
:10302000000000208DF80100EB46012003E057F876
:1030300004BB4FF0FF3061074FF0000102D40DE0F8
:1030400008F10101884649450FDA8045F8DB1BF895
:1030500008100029F4D108E008F1010188468142F6
:10306000FADB1BF808100029F6D1DDE90F23AAEBE3
:1030700008008146214600F031F9304400EB080693
:1030800004E0DDE90F121BF8010B9047B8F10108CD
:10309000F7D221464846F2E00A21C4F302524FF02B
:1030A000000B0891022A04D001CFC117032A09D0CE
:1030B0000AE0FF1D27F00707F7E8020108E02CE00F
:1030C0001EE01FE000B2C117042A01D140B2C117AF
:1030D000021E71F1000206DA0023D0EB030063EB5D
:1030E00001012D2202E0220504D52B228DF8242097
:1030F000012203E0E20701D02022F7E7904653E0E7
:103100000A210BE0102109E010214FF0000B44F0E0
:1031100004044FF00809089103E008214FF0000B68
:103120000891C4F30252022A04D001CF0021032ADD
:1031300006D006E0FF1D27F00707F7E8020103E0CD
:1031400080B2042A00D1C0B24FF0000822072BD56C
:103150002A78702A07D0DDF820C08CF0100C5CEAC9
:103160000B0C05D00EE040228DF82420012208E04F
:1031700050EA010306D030238DF824308DF8252045
:1031800002229046089B83F0080353EA0B030BD1FD
:1031900050EA010201D1620706D530228DF82420C1
:1031A0004FF00108A9F101092A78582A04D038A261
:1031B0000B9208AA0A920BE03AA2F9E75B46089A3A
:1031C000FDF728F80B9B9B5C0A9A521E0A9213701B
:1031D00050EA0102F2D10A98ADEB000000F1200B99
:1031E000600702D524F4803401E04FF00109D9458D
:1031F00002DDA9EB0B0000E0002000EB0B014144D5
:103200000890AAEB010AE00306D4DDE90F2321466A
:10321000504600F063F806444FF0000908E009A9A1
:1032200011F80900DDE90F12904709F10109761C38
:10323000C145F4DBE0030CD5DDE90F232146504600
:1032400000F04CF8064404E0DDE90F12302090470E
:10325000761C0899481E08900029F5DC08E00A98B9
:103260000A990078491C0A91DDE90F129047761CF3
:10327000BBF10001ABF1010BF1DC21465046DDE969
:103280000F2300F019F806446D1C21E609280100FF
:1032900030313233343536373839616263646566CC
:1032A000000000003031323334353637383941428E
:1032B00043444546000000002DE9F0410446002546
:1032C0001E461746880404D405E039462020B0473E
:1032D0006D1C641EF9D52846BDE8F0812DE9F0414A
:1032E000044600251E469046C80301D5302700E05D
:1032F0002027880404D505E041463846B0476D1CB8
:10330000641EF9D52846BDE8F081000010B53B4C9D
:103310009AB03BA02169FFF79DFD40A0FFF79AFD01
:103320004048FFF797FD40A0FFF794FD40A0FFF74E
:1033300091FD40A0FFF78EFD404941A0FFF78AFDB7
:103340004148FFF787FD38A0FFF784FD38A0FFF75D
:1033500081FD3EA0FFF77EFD384939A0FFF77AFDD9
:103360003CA02169FFF776FD2FA0FFF773FD30A089
:10337000FFF770FD2FA0FFF76DFD304930A0FFF77C
:1033800069FD34A0E168FFF765FD27A0FFF762FD46
:1033900027A0FFF75FFD21A0FFF75CFD274928A0CC
:1033A000FFF758FD2BA0A168FFF754FD1EA0FFF703
:1033B00051FD1FA0FFF74EFD2BA0FFF74BFD1F494E
:1033C0001FA0FFF747FD23A06168FFF743FD16A08C
:1033D000FFF740FD16A0FFF73DFD64216846FCF7AE
:1033E00051FF002069460854401C6428FBD3642127
:1033F000684600F067F81AB010BD000030000020E9
:1034000043757272656E74206C6F67206C657665AB
:103410006C206973205B25735D0A00001B5B3333EE
:103420006D000000E03500081B5B306D00000000FF
:103430000A0000001B5B33326D000000D03500082D
:103440005B25735D3A2000008C3600081B5B33342B
:103450006D000000546865204C6F67204C657665F0
:103460006C206973202573001B5B33316D000000F5
:1034700013B54FF6FF73012269460248FEF7F0FDCF
:1034800000981CBD04020020FDF79AF9FEF7B9FF71
:10349000FEF746FEFEF778FFFEF768FEFEF70AFF2E
:1034A000FEF73EFFFEF798FE02A0FFF7D3FC00F008
:1034B0006DF8FEE748656C6C6F20576F726C642185
:1034C0000D0A00002DE9F04180460E4621A0FFF7CD
:1034D000C1FC22A0FFF7BEFC0024214621A0FFF77B
:1034E000B9FC641C102CF8D320A0FFF7B3FC21A07A
:1034F000FFF7B0FC06F10F000709002526E015A034
:10350000FFF7A8FC29011CA0FFF7A4FC1CA0FFF7F3
:10351000A1FC002408E000BF18F8001011A0FFF77C
:1035200099FC641C102C0AD204EB0510B042F3D3B2
:1035300003E015A0FFF78EFC641C102CF9D30DA03E
:10354000FFF788FC09A0FFF785FC6D1CBD42D6D3B0
:10355000BDE8F0811B5B33366D0000002020202089
:103560002000000025303258200000001B5B306D29
:10357000000000000A000000253034582000000040
:103580001B5B33356D00000020202000FFF7BEBE1E
:10359000010002000400060008000A000C001000F0
:1035A000200040008000000101010103070100002C
:1035B00008040204080101010000000000000000EE
:1035C00001020304060708090000000001020304C9
:1035D00064656275675F6C6F675F64656D6F00003F
:1035E000205F5F5F5F205F5F5F5F205F5F5F5F20E7
:1035F0005F5F5F5F205F5F5F5F205F5F5F5F205F98
:103600005F5F5F205F5F5F5F200A7C7C4C207C7C7B
:103610007C4F207C7C7C47207C7C7C2D207C7C7CAF
:1036200044207C7C7C45207C7C7C4D207C7C7C4FB9
:10363000207C7C0A7C7C5F5F7C7C7C5F5F7C7C7C0C
:103640005F5F7C7C7C5F5F7C7C7C5F5F7C7C7C5F85
:103650005F7C7C7C5F5F7C7C7C5F5F7C7C0A7C2FFA
:103660005F5F5C7C2F5F5F5C7C2F5F5F5C7C2F5FAC
:103670005F5C7C2F5F5F5C7C2F5F5F5C7C2F5F5F9C
:103680005C7C2F5F5F5C7C0A00000000E4B8ADE664
:103690009687E6B58BE8AF95E8BE93E587BA2C2010
:1036A000E99C80E8A681E7A1AEE4BF9DE7BB88E77F
:1036B000ABAFE694AFE68C815554462D38E79A843B
:1036C000E698BEE7A4BA2C20E590A6E58899E6988E
:1036D000BEE7A4BAE4B9B1E7A0810A005761726EEF
:1036E000696E67004465627567000000496E666F29
:1036F000000000004572726F720000001C37000865
:103700000000002048000000942E000864370008E4
:1037100048000020A0060000A42E000810000000B1
:103720000100000000000000000000000000000098
:103730000000000000000000010000000000000088
:1037400000000000000000000024F4000000000061
:10375000F4360008DC360008EC360008E4360008D1
:043760000000000065
:04000005080001D915
:00000001FF
